{
  "_format": "hh-sol-artifact-1",
  "contractName": "TodoList",
  "sourceName": "contracts/TodoList.sol",
  "abi": [
    {
      "inputs": [],
      "stateMutability": "nonpayable",
      "type": "constructor"
    },
    {
      "anonymous": false,
      "inputs": [
        {
          "indexed": false,
          "internalType": "uint256",
          "name": "id",
          "type": "uint256"
        },
        {
          "indexed": false,
          "internalType": "string",
          "name": "title",
          "type": "string"
        },
        {
          "indexed": false,
          "internalType": "string",
          "name": "content",
          "type": "string"
        },
        {
          "indexed": false,
          "internalType": "string",
          "name": "level",
          "type": "string"
        },
        {
          "indexed": false,
          "internalType": "bool",
          "name": "isCompleted",
          "type": "bool"
        }
      ],
      "name": "TaskChanged",
      "type": "event"
    },
    {
      "anonymous": false,
      "inputs": [
        {
          "indexed": false,
          "internalType": "uint256",
          "name": "id",
          "type": "uint256"
        }
      ],
      "name": "TaskCompleted",
      "type": "event"
    },
    {
      "anonymous": false,
      "inputs": [
        {
          "indexed": false,
          "internalType": "uint256",
          "name": "id",
          "type": "uint256"
        },
        {
          "indexed": false,
          "internalType": "string",
          "name": "title",
          "type": "string"
        },
        {
          "indexed": false,
          "internalType": "string",
          "name": "content",
          "type": "string"
        },
        {
          "indexed": false,
          "internalType": "string",
          "name": "level",
          "type": "string"
        },
        {
          "indexed": false,
          "internalType": "bool",
          "name": "isCompleted",
          "type": "bool"
        }
      ],
      "name": "TaskCreated",
      "type": "event"
    },
    {
      "inputs": [
        {
          "internalType": "uint256",
          "name": "_amount",
          "type": "uint256"
        }
      ],
      "name": "changeCompleteAmount",
      "outputs": [],
      "stateMutability": "nonpayable",
      "type": "function"
    },
    {
      "inputs": [
        {
          "internalType": "uint256",
          "name": "_amount",
          "type": "uint256"
        }
      ],
      "name": "changeCreatAmount",
      "outputs": [],
      "stateMutability": "nonpayable",
      "type": "function"
    },
    {
      "inputs": [
        {
          "internalType": "uint256",
          "name": "_id",
          "type": "uint256"
        },
        {
          "internalType": "string",
          "name": "_title",
          "type": "string"
        },
        {
          "internalType": "string",
          "name": "_content",
          "type": "string"
        },
        {
          "internalType": "string",
          "name": "_level",
          "type": "string"
        }
      ],
      "name": "changeTask",
      "outputs": [],
      "stateMutability": "nonpayable",
      "type": "function"
    },
    {
      "inputs": [],
      "name": "completeAmount",
      "outputs": [
        {
          "internalType": "uint256",
          "name": "",
          "type": "uint256"
        }
      ],
      "stateMutability": "view",
      "type": "function"
    },
    {
      "inputs": [],
      "name": "creatAmount",
      "outputs": [
        {
          "internalType": "uint256",
          "name": "",
          "type": "uint256"
        }
      ],
      "stateMutability": "view",
      "type": "function"
    },
    {
      "inputs": [
        {
          "internalType": "string",
          "name": "_title",
          "type": "string"
        },
        {
          "internalType": "string",
          "name": "_content",
          "type": "string"
        },
        {
          "internalType": "string",
          "name": "_level",
          "type": "string"
        }
      ],
      "name": "creatTask",
      "outputs": [],
      "stateMutability": "nonpayable",
      "type": "function"
    },
    {
      "inputs": [
        {
          "internalType": "uint256",
          "name": "_id",
          "type": "uint256"
        }
      ],
      "name": "finishTask",
      "outputs": [],
      "stateMutability": "nonpayable",
      "type": "function"
    },
    {
      "inputs": [
        {
          "internalType": "address",
          "name": "addr",
          "type": "address"
        }
      ],
      "name": "getBalance",
      "outputs": [
        {
          "internalType": "uint256",
          "name": "",
          "type": "uint256"
        }
      ],
      "stateMutability": "view",
      "type": "function"
    },
    {
      "inputs": [
        {
          "internalType": "uint256",
          "name": "_id",
          "type": "uint256"
        }
      ],
      "name": "getTask",
      "outputs": [
        {
          "components": [
            {
              "internalType": "uint256",
              "name": "id",
              "type": "uint256"
            },
            {
              "internalType": "string",
              "name": "title",
              "type": "string"
            },
            {
              "internalType": "string",
              "name": "content",
              "type": "string"
            },
            {
              "internalType": "string",
              "name": "level",
              "type": "string"
            },
            {
              "internalType": "bool",
              "name": "isCompleted",
              "type": "bool"
            }
          ],
          "internalType": "struct TodoList.Task",
          "name": "",
          "type": "tuple"
        }
      ],
      "stateMutability": "view",
      "type": "function"
    },
    {
      "inputs": [],
      "name": "getTasks",
      "outputs": [
        {
          "components": [
            {
              "internalType": "uint256",
              "name": "id",
              "type": "uint256"
            },
            {
              "internalType": "string",
              "name": "title",
              "type": "string"
            },
            {
              "internalType": "string",
              "name": "content",
              "type": "string"
            },
            {
              "internalType": "string",
              "name": "level",
              "type": "string"
            },
            {
              "internalType": "bool",
              "name": "isCompleted",
              "type": "bool"
            }
          ],
          "internalType": "struct TodoList.Task[]",
          "name": "",
          "type": "tuple[]"
        }
      ],
      "stateMutability": "view",
      "type": "function"
    },
    {
      "inputs": [],
      "name": "owner",
      "outputs": [
        {
          "internalType": "address",
          "name": "",
          "type": "address"
        }
      ],
      "stateMutability": "view",
      "type": "function"
    },
    {
      "inputs": [],
      "name": "taskCount",
      "outputs": [
        {
          "internalType": "uint256",
          "name": "",
          "type": "uint256"
        }
      ],
      "stateMutability": "view",
      "type": "function"
    },
    {
      "inputs": [
        {
          "internalType": "uint256",
          "name": "",
          "type": "uint256"
        }
      ],
      "name": "tasks",
      "outputs": [
        {
          "internalType": "uint256",
          "name": "id",
          "type": "uint256"
        },
        {
          "internalType": "string",
          "name": "title",
          "type": "string"
        },
        {
          "internalType": "string",
          "name": "content",
          "type": "string"
        },
        {
          "internalType": "string",
          "name": "level",
          "type": "string"
        },
        {
          "internalType": "bool",
          "name": "isCompleted",
          "type": "bool"
        }
      ],
      "stateMutability": "view",
      "type": "function"
    },
    {
      "inputs": [],
      "name": "tokenAmount",
      "outputs": [
        {
          "internalType": "uint256",
          "name": "",
          "type": "uint256"
        }
      ],
      "stateMutability": "view",
      "type": "function"
    }
  ],
  "bytecode": "0x608060405260006001556001600255600260035534801561001f57600080fd5b50336000806101000a81548173ffffffffffffffffffffffffffffffffffffffff021916908373ffffffffffffffffffffffffffffffffffffffff160217905550610400600481905550611d48806100786000396000f3fe608060405234801561001057600080fd5b50600436106100ea5760003560e01c8063b6cb58a51161008c578063eec7faa111610066578063eec7faa11461023b578063f4facd8a14610259578063f8b2cb4f14610277578063fbbd142f146102a7576100ea565b8063b6cb58a5146101e3578063b8880f5814610201578063c23f07991461021f576100ea565b8063728f22c9116100c8578063728f22c914610159578063842178b2146101755780638d977672146101915780638da5cb5b146101c5576100ea565b806304a87e38146100ef5780631d65e77e1461010d57806358db10201461013d575b600080fd5b6100f76102c3565b6040516101049190611276565b60405180910390f35b610127600480360381019061012291906112d8565b6104fd565b6040516101349190611389565b60405180910390f35b610157600480360381019061015291906112d8565b610720565b005b610173600480360381019061016e91906112d8565b6107b8565b005b61018f600480360381019061018a91906112d8565b610850565b005b6101ab60048036038101906101a691906112d8565b610953565b6040516101bc959493929190611413565b60405180910390f35b6101cd610b3e565b6040516101da91906114bc565b60405180910390f35b6101eb610b62565b6040516101f891906114d7565b60405180910390f35b610209610b68565b60405161021691906114d7565b60405180910390f35b61023960048036038101906102349190611627565b610b6e565b005b610243610cce565b60405161025091906114d7565b60405180910390f35b610261610cd4565b60405161026e91906114d7565b60405180910390f35b610291600480360381019061028c919061170e565b610cda565b60405161029e91906114d7565b60405180910390f35b6102c160048036038101906102bc919061173b565b610d23565b005b60606007805480602002602001604051908101604052809291908181526020016000905b828210156104f457838290600052602060002090600502016040518060a00160405290816000820154815260200160018201805461032490611811565b80601f016020809104026020016040519081016040528092919081815260200182805461035090611811565b801561039d5780601f106103725761010080835404028352916020019161039d565b820191906000526020600020905b81548152906001019060200180831161038057829003601f168201915b505050505081526020016002820180546103b690611811565b80601f01602080910402602001604051908101604052809291908181526020018280546103e290611811565b801561042f5780601f106104045761010080835404028352916020019161042f565b820191906000526020600020905b81548152906001019060200180831161041257829003601f168201915b5050505050815260200160038201805461044890611811565b80601f016020809104026020016040519081016040528092919081815260200182805461047490611811565b80156104c15780601f10610496576101008083540402835291602001916104c1565b820191906000526020600020905b8154815290600101906020018083116104a457829003601f168201915b505050505081526020016004820160009054906101000a900460ff161515151581525050815260200190600101906102e7565b50505050905090565b61050561103b565b60076001836105149190611871565b81548110610525576105246118a5565b5b90600052602060002090600502016040518060a00160405290816000820154815260200160018201805461055890611811565b80601f016020809104026020016040519081016040528092919081815260200182805461058490611811565b80156105d15780601f106105a6576101008083540402835291602001916105d1565b820191906000526020600020905b8154815290600101906020018083116105b457829003601f168201915b505050505081526020016002820180546105ea90611811565b80601f016020809104026020016040519081016040528092919081815260200182805461061690611811565b80156106635780601f1061063857610100808354040283529160200191610663565b820191906000526020600020905b81548152906001019060200180831161064657829003601f168201915b5050505050815260200160038201805461067c90611811565b80601f01602080910402602001604051908101604052809291908181526020018280546106a890611811565b80156106f55780601f106106ca576101008083540402835291602001916106f5565b820191906000526020600020905b8154815290600101906020018083116106d857829003601f168201915b505050505081526020016004820160009054906101000a900460ff1615151515815250509050919050565b3373ffffffffffffffffffffffffffffffffffffffff1660008054906101000a900473ffffffffffffffffffffffffffffffffffffffff1673ffffffffffffffffffffffffffffffffffffffff16146107ae576040517f08c379a00000000000000000000000000000000000000000000000000000000081526004016107a590611920565b60405180910390fd5b8060028190555050565b3373ffffffffffffffffffffffffffffffffffffffff1660008054906101000a900473ffffffffffffffffffffffffffffffffffffffff1673ffffffffffffffffffffffffffffffffffffffff1614610846576040517f08c379a000000000000000000000000000000000000000000000000000000000815260040161083d90611920565b60405180910390fd5b8060038190555050565b600160076001836108619190611871565b81548110610872576108716118a5565b5b906000526020600020906005020160040160006101000a81548160ff021916908315150217905550600354600560003373ffffffffffffffffffffffffffffffffffffffff1673ffffffffffffffffffffffffffffffffffffffff16815260200190815260200160002060008282546108eb9190611940565b92505081905550600354600460008282546109069190611871565b925050819055507fc1fa7142cfb933d0855114a3bffde296944c30b727f297c14d0db4d553d3a5c760018261093b9190611871565b60405161094891906114d7565b60405180910390a150565b6007818154811061096357600080fd5b906000526020600020906005020160009150905080600001549080600101805461098c90611811565b80601f01602080910402602001604051908101604052809291908181526020018280546109b890611811565b8015610a055780601f106109da57610100808354040283529160200191610a05565b820191906000526020600020905b8154815290600101906020018083116109e857829003601f168201915b505050505090806002018054610a1a90611811565b80601f0160208091040260200160405190810160405280929190818152602001828054610a4690611811565b8015610a935780601f10610a6857610100808354040283529160200191610a93565b820191906000526020600020905b815481529060010190602001808311610a7657829003601f168201915b505050505090806003018054610aa890611811565b80601f0160208091040260200160405190810160405280929190818152602001828054610ad490611811565b8015610b215780601f10610af657610100808354040283529160200191610b21565b820191906000526020600020905b815481529060010190602001808311610b0457829003601f168201915b5050505050908060040160009054906101000a900460ff16905085565b60008054906101000a900473ffffffffffffffffffffffffffffffffffffffff1681565b60015481565b60035481565b600154600185610b7e9190611871565b1115610bbf576040517f08c379a0000000000000000000000000000000000000000000000000000000008152600401610bb6906119c0565b60405180910390fd5b826007600186610bcf9190611871565b81548110610be057610bdf6118a5565b5b90600052602060002090600502016001019081610bfd9190611b8c565b50816007600186610c0e9190611871565b81548110610c1f57610c1e6118a5565b5b90600052602060002090600502016002019081610c3c9190611b8c565b50806007600186610c4d9190611871565b81548110610c5e57610c5d6118a5565b5b90600052602060002090600502016003019081610c7b9190611b8c565b507f9c47cf5bf570a9c19768b64756535724ba304984446148f5d91fbed65b6a1771600185610caa9190611871565b8484846000604051610cc0959493929190611413565b60405180910390a150505050565b60045481565b60025481565b6000600560008373ffffffffffffffffffffffffffffffffffffffff1673ffffffffffffffffffffffffffffffffffffffff168152602001908152602001600020549050919050565b6001600660003373ffffffffffffffffffffffffffffffffffffffff1673ffffffffffffffffffffffffffffffffffffffff1681526020019081526020016000205414610e0e576001600660003373ffffffffffffffffffffffffffffffffffffffff1673ffffffffffffffffffffffffffffffffffffffff1681526020019081526020016000208190555060058060003373ffffffffffffffffffffffffffffffffffffffff1673ffffffffffffffffffffffffffffffffffffffff16815260200190815260200160002081905550600560046000828254610e069190611871565b925050819055505b600254600560003373ffffffffffffffffffffffffffffffffffffffff1673ffffffffffffffffffffffffffffffffffffffff168152602001908152602001600020541015610e92576040517f08c379a0000000000000000000000000000000000000000000000000000000008152600401610e8990611caa565b60405180910390fd5b60016000815480929190610ea590611cca565b919050555060076040518060a001604052806001548152602001858152602001848152602001838152602001600015158152509080600181540180825580915050600190039060005260206000209060050201600090919091909150600082015181600001556020820151816001019081610f209190611b8c565b506040820151816002019081610f369190611b8c565b506060820151816003019081610f4c9190611b8c565b5060808201518160040160006101000a81548160ff02191690831515021790555050503360086000600154815260200190815260200160002060006101000a81548173ffffffffffffffffffffffffffffffffffffffff021916908373ffffffffffffffffffffffffffffffffffffffff160217905550600254600560003373ffffffffffffffffffffffffffffffffffffffff1673ffffffffffffffffffffffffffffffffffffffff16815260200190815260200160002060008282546110149190611871565b925050819055506002546004600082825461102f9190611940565b92505081905550505050565b6040518060a00160405280600081526020016060815260200160608152602001606081526020016000151581525090565b600081519050919050565b600082825260208201905092915050565b6000819050602082019050919050565b6000819050919050565b6110ab81611098565b82525050565b600081519050919050565b600082825260208201905092915050565b60005b838110156110eb5780820151818401526020810190506110d0565b60008484015250505050565b6000601f19601f8301169050919050565b6000611113826110b1565b61111d81856110bc565b935061112d8185602086016110cd565b611136816110f7565b840191505092915050565b60008115159050919050565b61115681611141565b82525050565b600060a08301600083015161117460008601826110a2565b506020830151848203602086015261118c8282611108565b915050604083015184820360408601526111a68282611108565b915050606083015184820360608601526111c08282611108565b91505060808301516111d5608086018261114d565b508091505092915050565b60006111ec838361115c565b905092915050565b6000602082019050919050565b600061120c8261106c565b6112168185611077565b93508360208202850161122885611088565b8060005b85811015611264578484038952815161124585826111e0565b9450611250836111f4565b925060208a0199505060018101905061122c565b50829750879550505050505092915050565b600060208201905081810360008301526112908184611201565b905092915050565b6000604051905090565b600080fd5b600080fd5b6112b581611098565b81146112c057600080fd5b50565b6000813590506112d2816112ac565b92915050565b6000602082840312156112ee576112ed6112a2565b5b60006112fc848285016112c3565b91505092915050565b600060a08301600083015161131d60008601826110a2565b50602083015184820360208601526113358282611108565b9150506040830151848203604086015261134f8282611108565b915050606083015184820360608601526113698282611108565b915050608083015161137e608086018261114d565b508091505092915050565b600060208201905081810360008301526113a38184611305565b905092915050565b6113b481611098565b82525050565b600082825260208201905092915050565b60006113d6826110b1565b6113e081856113ba565b93506113f08185602086016110cd565b6113f9816110f7565b840191505092915050565b61140d81611141565b82525050565b600060a08201905061142860008301886113ab565b818103602083015261143a81876113cb565b9050818103604083015261144e81866113cb565b9050818103606083015261146281856113cb565b90506114716080830184611404565b9695505050505050565b600073ffffffffffffffffffffffffffffffffffffffff82169050919050565b60006114a68261147b565b9050919050565b6114b68161149b565b82525050565b60006020820190506114d160008301846114ad565b92915050565b60006020820190506114ec60008301846113ab565b92915050565b600080fd5b600080fd5b7f4e487b7100000000000000000000000000000000000000000000000000000000600052604160045260246000fd5b611534826110f7565b810181811067ffffffffffffffff82111715611553576115526114fc565b5b80604052505050565b6000611566611298565b9050611572828261152b565b919050565b600067ffffffffffffffff821115611592576115916114fc565b5b61159b826110f7565b9050602081019050919050565b82818337600083830152505050565b60006115ca6115c584611577565b61155c565b9050828152602081018484840111156115e6576115e56114f7565b5b6115f18482856115a8565b509392505050565b600082601f83011261160e5761160d6114f2565b5b813561161e8482602086016115b7565b91505092915050565b60008060008060808587031215611641576116406112a2565b5b600061164f878288016112c3565b945050602085013567ffffffffffffffff8111156116705761166f6112a7565b5b61167c878288016115f9565b935050604085013567ffffffffffffffff81111561169d5761169c6112a7565b5b6116a9878288016115f9565b925050606085013567ffffffffffffffff8111156116ca576116c96112a7565b5b6116d6878288016115f9565b91505092959194509250565b6116eb8161149b565b81146116f657600080fd5b50565b600081359050611708816116e2565b92915050565b600060208284031215611724576117236112a2565b5b6000611732848285016116f9565b91505092915050565b600080600060608486031215611754576117536112a2565b5b600084013567ffffffffffffffff811115611772576117716112a7565b5b61177e868287016115f9565b935050602084013567ffffffffffffffff81111561179f5761179e6112a7565b5b6117ab868287016115f9565b925050604084013567ffffffffffffffff8111156117cc576117cb6112a7565b5b6117d8868287016115f9565b9150509250925092565b7f4e487b7100000000000000000000000000000000000000000000000000000000600052602260045260246000fd5b6000600282049050600182168061182957607f821691505b60208210810361183c5761183b6117e2565b5b50919050565b7f4e487b7100000000000000000000000000000000000000000000000000000000600052601160045260246000fd5b600061187c82611098565b915061188783611098565b925082820390508181111561189f5761189e611842565b5b92915050565b7f4e487b7100000000000000000000000000000000000000000000000000000000600052603260045260246000fd5b7f4f6e6c7920746865206f776e65722063616e206368616e676520746f6b656e73600082015250565b600061190a6020836113ba565b9150611915826118d4565b602082019050919050565b60006020820190508181036000830152611939816118fd565b9050919050565b600061194b82611098565b915061195683611098565b925082820190508082111561196e5761196d611842565b5b92915050565b7f63616e27742066696e642074686973207461736b000000000000000000000000600082015250565b60006119aa6014836113ba565b91506119b582611974565b602082019050919050565b600060208201905081810360008301526119d98161199d565b9050919050565b60008190508160005260206000209050919050565b60006020601f8301049050919050565b600082821b905092915050565b600060088302611a427fffffffffffffffffffffffffffffffffffffffffffffffffffffffffffffffff82611a05565b611a4c8683611a05565b95508019841693508086168417925050509392505050565b6000819050919050565b6000611a89611a84611a7f84611098565b611a64565b611098565b9050919050565b6000819050919050565b611aa383611a6e565b611ab7611aaf82611a90565b848454611a12565b825550505050565b600090565b611acc611abf565b611ad7818484611a9a565b505050565b5b81811015611afb57611af0600082611ac4565b600181019050611add565b5050565b601f821115611b4057611b11816119e0565b611b1a846119f5565b81016020851015611b29578190505b611b3d611b35856119f5565b830182611adc565b50505b505050565b600082821c905092915050565b6000611b6360001984600802611b45565b1980831691505092915050565b6000611b7c8383611b52565b9150826002028217905092915050565b611b95826110b1565b67ffffffffffffffff811115611bae57611bad6114fc565b5b611bb88254611811565b611bc3828285611aff565b600060209050601f831160018114611bf65760008415611be4578287015190505b611bee8582611b70565b865550611c56565b601f198416611c04866119e0565b60005b82811015611c2c57848901518255600182019150602085019450602081019050611c07565b86831015611c495784890151611c45601f891682611b52565b8355505b6001600288020188555050505b505050505050565b7f646f6e74206861766520656e6f7567687420746f6b656e000000000000000000600082015250565b6000611c946017836113ba565b9150611c9f82611c5e565b602082019050919050565b60006020820190508181036000830152611cc381611c87565b9050919050565b6000611cd582611098565b91507fffffffffffffffffffffffffffffffffffffffffffffffffffffffffffffffff8203611d0757611d06611842565b5b60018201905091905056fea264697066735822122063a88f3bc36d2078f851482dcd2030ace5791882e32bea0ccfaf8ecbf849f55064736f6c63430008130033",
  "linkReferences": {},
  "deployedLinkReferences": {}
}