{
  "_format": "hh-sol-artifact-1",
  "contractName": "TodoList",
  "sourceName": "contracts/TodoList.sol",
  "abi": [
    {
      "inputs": [],
      "stateMutability": "nonpayable",
      "type": "constructor"
    },
    {
      "anonymous": false,
      "inputs": [
        {
          "indexed": false,
          "internalType": "uint256",
          "name": "id",
          "type": "uint256"
        },
        {
          "indexed": false,
          "internalType": "string",
          "name": "title",
          "type": "string"
        },
        {
          "indexed": false,
          "internalType": "string",
          "name": "content",
          "type": "string"
        },
        {
          "indexed": false,
          "internalType": "string",
          "name": "level",
          "type": "string"
        },
        {
          "indexed": false,
          "internalType": "bool",
          "name": "isCompleted",
          "type": "bool"
        }
      ],
      "name": "TaskChanged",
      "type": "event"
    },
    {
      "anonymous": false,
      "inputs": [
        {
          "indexed": false,
          "internalType": "uint256",
          "name": "id",
          "type": "uint256"
        }
      ],
      "name": "TaskCompleted",
      "type": "event"
    },
    {
      "anonymous": false,
      "inputs": [
        {
          "indexed": false,
          "internalType": "uint256",
          "name": "id",
          "type": "uint256"
        },
        {
          "indexed": false,
          "internalType": "string",
          "name": "title",
          "type": "string"
        },
        {
          "indexed": false,
          "internalType": "string",
          "name": "content",
          "type": "string"
        },
        {
          "indexed": false,
          "internalType": "string",
          "name": "level",
          "type": "string"
        },
        {
          "indexed": false,
          "internalType": "bool",
          "name": "isCompleted",
          "type": "bool"
        }
      ],
      "name": "TaskCreated",
      "type": "event"
    },
    {
      "inputs": [
        {
          "internalType": "uint256",
          "name": "_amount",
          "type": "uint256"
        }
      ],
      "name": "changeCompleteAmount",
      "outputs": [],
      "stateMutability": "nonpayable",
      "type": "function"
    },
    {
      "inputs": [
        {
          "internalType": "uint256",
          "name": "_amount",
          "type": "uint256"
        }
      ],
      "name": "changeCreatAmount",
      "outputs": [],
      "stateMutability": "nonpayable",
      "type": "function"
    },
    {
      "inputs": [
        {
          "internalType": "uint256",
          "name": "_id",
          "type": "uint256"
        },
        {
          "internalType": "string",
          "name": "_title",
          "type": "string"
        },
        {
          "internalType": "string",
          "name": "_content",
          "type": "string"
        },
        {
          "internalType": "string",
          "name": "_level",
          "type": "string"
        }
      ],
      "name": "changeTask",
      "outputs": [],
      "stateMutability": "nonpayable",
      "type": "function"
    },
    {
      "inputs": [],
      "name": "completeAmount",
      "outputs": [
        {
          "internalType": "uint256",
          "name": "",
          "type": "uint256"
        }
      ],
      "stateMutability": "view",
      "type": "function"
    },
    {
      "inputs": [],
      "name": "creatAmount",
      "outputs": [
        {
          "internalType": "uint256",
          "name": "",
          "type": "uint256"
        }
      ],
      "stateMutability": "view",
      "type": "function"
    },
    {
      "inputs": [
        {
          "internalType": "string",
          "name": "_title",
          "type": "string"
        },
        {
          "internalType": "string",
          "name": "_content",
          "type": "string"
        },
        {
          "internalType": "string",
          "name": "_level",
          "type": "string"
        }
      ],
      "name": "creatTask",
      "outputs": [],
      "stateMutability": "nonpayable",
      "type": "function"
    },
    {
      "inputs": [
        {
          "internalType": "uint256",
          "name": "_id",
          "type": "uint256"
        }
      ],
      "name": "finishTask",
      "outputs": [],
      "stateMutability": "nonpayable",
      "type": "function"
    },
    {
      "inputs": [
        {
          "internalType": "address",
          "name": "addr",
          "type": "address"
        }
      ],
      "name": "getBalance",
      "outputs": [
        {
          "internalType": "uint256",
          "name": "",
          "type": "uint256"
        }
      ],
      "stateMutability": "view",
      "type": "function"
    },
    {
      "inputs": [
        {
          "internalType": "uint256",
          "name": "_id",
          "type": "uint256"
        }
      ],
      "name": "getTask",
      "outputs": [
        {
          "components": [
            {
              "internalType": "uint256",
              "name": "id",
              "type": "uint256"
            },
            {
              "internalType": "string",
              "name": "title",
              "type": "string"
            },
            {
              "internalType": "string",
              "name": "content",
              "type": "string"
            },
            {
              "internalType": "string",
              "name": "level",
              "type": "string"
            },
            {
              "internalType": "bool",
              "name": "isCompleted",
              "type": "bool"
            }
          ],
          "internalType": "struct TodoList.Task",
          "name": "",
          "type": "tuple"
        }
      ],
      "stateMutability": "view",
      "type": "function"
    },
    {
      "inputs": [],
      "name": "getTasks",
      "outputs": [
        {
          "components": [
            {
              "internalType": "uint256",
              "name": "id",
              "type": "uint256"
            },
            {
              "internalType": "string",
              "name": "title",
              "type": "string"
            },
            {
              "internalType": "string",
              "name": "content",
              "type": "string"
            },
            {
              "internalType": "string",
              "name": "level",
              "type": "string"
            },
            {
              "internalType": "bool",
              "name": "isCompleted",
              "type": "bool"
            }
          ],
          "internalType": "struct TodoList.Task[]",
          "name": "",
          "type": "tuple[]"
        }
      ],
      "stateMutability": "view",
      "type": "function"
    },
    {
      "inputs": [],
      "name": "owner",
      "outputs": [
        {
          "internalType": "address",
          "name": "",
          "type": "address"
        }
      ],
      "stateMutability": "view",
      "type": "function"
    },
    {
      "inputs": [],
      "name": "taskCount",
      "outputs": [
        {
          "internalType": "uint256",
          "name": "",
          "type": "uint256"
        }
      ],
      "stateMutability": "view",
      "type": "function"
    },
    {
      "inputs": [],
      "name": "tokenAmount",
      "outputs": [
        {
          "internalType": "uint256",
          "name": "",
          "type": "uint256"
        }
      ],
      "stateMutability": "view",
      "type": "function"
    }
  ],
  "bytecode": "0x608060405260006001556001600255600260035534801561001f57600080fd5b50336000806101000a81548173ffffffffffffffffffffffffffffffffffffffff021916908373ffffffffffffffffffffffffffffffffffffffff160217905550610400600481905550611ca7806100786000396000f3fe608060405234801561001057600080fd5b50600436106100cf5760003560e01c8063b6cb58a51161008c578063eec7faa111610066578063eec7faa1146101ec578063f4facd8a1461020a578063f8b2cb4f14610228578063fbbd142f14610258576100cf565b8063b6cb58a514610194578063b8880f58146101b2578063c23f0799146101d0576100cf565b806304a87e38146100d45780631d65e77e146100f257806358db102014610122578063728f22c91461013e578063842178b21461015a5780638da5cb5b14610176575b600080fd5b6100dc610274565b6040516100e991906111d5565b60405180910390f35b61010c60048036038101906101079190611237565b6104eb565b60405161011991906112e8565b60405180910390f35b61013c60048036038101906101379190611237565b61074b565b005b61015860048036038101906101539190611237565b6107e3565b005b610174600480360381019061016f9190611237565b61087b565b005b61017e6109bb565b60405161018b919061134b565b60405180910390f35b61019c6109df565b6040516101a99190611375565b60405180910390f35b6101ba6109e5565b6040516101c79190611375565b60405180910390f35b6101ea60048036038101906101e591906114c5565b6109eb565b005b6101f4610c02565b6040516102019190611375565b60405180910390f35b610212610c08565b60405161021f9190611375565b60405180910390f35b610242600480360381019061023d91906115ac565b610c0e565b60405161024f9190611375565b60405180910390f35b610272600480360381019061026d91906115d9565b610c57565b005b6060600760003373ffffffffffffffffffffffffffffffffffffffff1673ffffffffffffffffffffffffffffffffffffffff168152602001908152602001600020805480602002602001604051908101604052809291908181526020016000905b828210156104e257838290600052602060002090600502016040518060a001604052908160008201548152602001600182018054610312906116af565b80601f016020809104026020016040519081016040528092919081815260200182805461033e906116af565b801561038b5780601f106103605761010080835404028352916020019161038b565b820191906000526020600020905b81548152906001019060200180831161036e57829003601f168201915b505050505081526020016002820180546103a4906116af565b80601f01602080910402602001604051908101604052809291908181526020018280546103d0906116af565b801561041d5780601f106103f25761010080835404028352916020019161041d565b820191906000526020600020905b81548152906001019060200180831161040057829003601f168201915b50505050508152602001600382018054610436906116af565b80601f0160208091040260200160405190810160405280929190818152602001828054610462906116af565b80156104af5780601f10610484576101008083540402835291602001916104af565b820191906000526020600020905b81548152906001019060200180831161049257829003601f168201915b505050505081526020016004820160009054906101000a900460ff161515151581525050815260200190600101906102d5565b50505050905090565b6104f3610f9a565b600760003373ffffffffffffffffffffffffffffffffffffffff1673ffffffffffffffffffffffffffffffffffffffff16815260200190815260200160002060018361053f919061170f565b815481106105505761054f611743565b5b90600052602060002090600502016040518060a001604052908160008201548152602001600182018054610583906116af565b80601f01602080910402602001604051908101604052809291908181526020018280546105af906116af565b80156105fc5780601f106105d1576101008083540402835291602001916105fc565b820191906000526020600020905b8154815290600101906020018083116105df57829003601f168201915b50505050508152602001600282018054610615906116af565b80601f0160208091040260200160405190810160405280929190818152602001828054610641906116af565b801561068e5780601f106106635761010080835404028352916020019161068e565b820191906000526020600020905b81548152906001019060200180831161067157829003601f168201915b505050505081526020016003820180546106a7906116af565b80601f01602080910402602001604051908101604052809291908181526020018280546106d3906116af565b80156107205780601f106106f557610100808354040283529160200191610720565b820191906000526020600020905b81548152906001019060200180831161070357829003601f168201915b505050505081526020016004820160009054906101000a900460ff1615151515815250509050919050565b3373ffffffffffffffffffffffffffffffffffffffff1660008054906101000a900473ffffffffffffffffffffffffffffffffffffffff1673ffffffffffffffffffffffffffffffffffffffff16146107d9576040517f08c379a00000000000000000000000000000000000000000000000000000000081526004016107d0906117cf565b60405180910390fd5b8060028190555050565b3373ffffffffffffffffffffffffffffffffffffffff1660008054906101000a900473ffffffffffffffffffffffffffffffffffffffff1673ffffffffffffffffffffffffffffffffffffffff1614610871576040517f08c379a0000000000000000000000000000000000000000000000000000000008152600401610868906117cf565b60405180910390fd5b8060038190555050565b6001600760003373ffffffffffffffffffffffffffffffffffffffff1673ffffffffffffffffffffffffffffffffffffffff1681526020019081526020016000206001836108c9919061170f565b815481106108da576108d9611743565b5b906000526020600020906005020160040160006101000a81548160ff021916908315150217905550600354600560003373ffffffffffffffffffffffffffffffffffffffff1673ffffffffffffffffffffffffffffffffffffffff168152602001908152602001600020600082825461095391906117ef565b925050819055506003546004600082825461096e919061170f565b925050819055507fc1fa7142cfb933d0855114a3bffde296944c30b727f297c14d0db4d553d3a5c76001826109a3919061170f565b6040516109b09190611375565b60405180910390a150565b60008054906101000a900473ffffffffffffffffffffffffffffffffffffffff1681565b60015481565b60035481565b6001546001856109fb919061170f565b1115610a3c576040517f08c379a0000000000000000000000000000000000000000000000000000000008152600401610a339061186f565b60405180910390fd5b82600760003373ffffffffffffffffffffffffffffffffffffffff1673ffffffffffffffffffffffffffffffffffffffff168152602001908152602001600020600186610a89919061170f565b81548110610a9a57610a99611743565b5b90600052602060002090600502016001019081610ab79190611a3b565b5081600760003373ffffffffffffffffffffffffffffffffffffffff1673ffffffffffffffffffffffffffffffffffffffff168152602001908152602001600020600186610b05919061170f565b81548110610b1657610b15611743565b5b90600052602060002090600502016002019081610b339190611a3b565b5080600760003373ffffffffffffffffffffffffffffffffffffffff1673ffffffffffffffffffffffffffffffffffffffff168152602001908152602001600020600186610b81919061170f565b81548110610b9257610b91611743565b5b90600052602060002090600502016003019081610baf9190611a3b565b507f9c47cf5bf570a9c19768b64756535724ba304984446148f5d91fbed65b6a1771600185610bde919061170f565b8484846000604051610bf4959493929190611b55565b60405180910390a150505050565b60045481565b60025481565b6000600560008373ffffffffffffffffffffffffffffffffffffffff1673ffffffffffffffffffffffffffffffffffffffff168152602001908152602001600020549050919050565b6001600660003373ffffffffffffffffffffffffffffffffffffffff1673ffffffffffffffffffffffffffffffffffffffff1681526020019081526020016000205414610d42576001600660003373ffffffffffffffffffffffffffffffffffffffff1673ffffffffffffffffffffffffffffffffffffffff1681526020019081526020016000208190555060058060003373ffffffffffffffffffffffffffffffffffffffff1673ffffffffffffffffffffffffffffffffffffffff16815260200190815260200160002081905550600560046000828254610d3a919061170f565b925050819055505b600254600560003373ffffffffffffffffffffffffffffffffffffffff1673ffffffffffffffffffffffffffffffffffffffff168152602001908152602001600020541015610dc6576040517f08c379a0000000000000000000000000000000000000000000000000000000008152600401610dbd90611c09565b60405180910390fd5b60016000815480929190610dd990611c29565b9190505550600760003373ffffffffffffffffffffffffffffffffffffffff1673ffffffffffffffffffffffffffffffffffffffff1681526020019081526020016000206040518060a001604052806001548152602001858152602001848152602001838152602001600015158152509080600181540180825580915050600190039060005260206000209060050201600090919091909150600082015181600001556020820151816001019081610e919190611a3b565b506040820151816002019081610ea79190611a3b565b506060820151816003019081610ebd9190611a3b565b5060808201518160040160006101000a81548160ff0219169083151502179055505050600254600560003373ffffffffffffffffffffffffffffffffffffffff1673ffffffffffffffffffffffffffffffffffffffff1681526020019081526020016000206000828254610f31919061170f565b9250508190555060025460046000828254610f4c91906117ef565b925050819055507f59aed97f8a348bc16f8af76ab976d9b7b56efaffa05bd3a9a0054f7498b572876001548484846000604051610f8d959493929190611b55565b60405180910390a1505050565b6040518060a00160405280600081526020016060815260200160608152602001606081526020016000151581525090565b600081519050919050565b600082825260208201905092915050565b6000819050602082019050919050565b6000819050919050565b61100a81610ff7565b82525050565b600081519050919050565b600082825260208201905092915050565b60005b8381101561104a57808201518184015260208101905061102f565b60008484015250505050565b6000601f19601f8301169050919050565b600061107282611010565b61107c818561101b565b935061108c81856020860161102c565b61109581611056565b840191505092915050565b60008115159050919050565b6110b5816110a0565b82525050565b600060a0830160008301516110d36000860182611001565b50602083015184820360208601526110eb8282611067565b915050604083015184820360408601526111058282611067565b9150506060830151848203606086015261111f8282611067565b915050608083015161113460808601826110ac565b508091505092915050565b600061114b83836110bb565b905092915050565b6000602082019050919050565b600061116b82610fcb565b6111758185610fd6565b93508360208202850161118785610fe7565b8060005b858110156111c357848403895281516111a4858261113f565b94506111af83611153565b925060208a0199505060018101905061118b565b50829750879550505050505092915050565b600060208201905081810360008301526111ef8184611160565b905092915050565b6000604051905090565b600080fd5b600080fd5b61121481610ff7565b811461121f57600080fd5b50565b6000813590506112318161120b565b92915050565b60006020828403121561124d5761124c611201565b5b600061125b84828501611222565b91505092915050565b600060a08301600083015161127c6000860182611001565b50602083015184820360208601526112948282611067565b915050604083015184820360408601526112ae8282611067565b915050606083015184820360608601526112c88282611067565b91505060808301516112dd60808601826110ac565b508091505092915050565b600060208201905081810360008301526113028184611264565b905092915050565b600073ffffffffffffffffffffffffffffffffffffffff82169050919050565b60006113358261130a565b9050919050565b6113458161132a565b82525050565b6000602082019050611360600083018461133c565b92915050565b61136f81610ff7565b82525050565b600060208201905061138a6000830184611366565b92915050565b600080fd5b600080fd5b7f4e487b7100000000000000000000000000000000000000000000000000000000600052604160045260246000fd5b6113d282611056565b810181811067ffffffffffffffff821117156113f1576113f061139a565b5b80604052505050565b60006114046111f7565b905061141082826113c9565b919050565b600067ffffffffffffffff8211156114305761142f61139a565b5b61143982611056565b9050602081019050919050565b82818337600083830152505050565b600061146861146384611415565b6113fa565b90508281526020810184848401111561148457611483611395565b5b61148f848285611446565b509392505050565b600082601f8301126114ac576114ab611390565b5b81356114bc848260208601611455565b91505092915050565b600080600080608085870312156114df576114de611201565b5b60006114ed87828801611222565b945050602085013567ffffffffffffffff81111561150e5761150d611206565b5b61151a87828801611497565b935050604085013567ffffffffffffffff81111561153b5761153a611206565b5b61154787828801611497565b925050606085013567ffffffffffffffff81111561156857611567611206565b5b61157487828801611497565b91505092959194509250565b6115898161132a565b811461159457600080fd5b50565b6000813590506115a681611580565b92915050565b6000602082840312156115c2576115c1611201565b5b60006115d084828501611597565b91505092915050565b6000806000606084860312156115f2576115f1611201565b5b600084013567ffffffffffffffff8111156116105761160f611206565b5b61161c86828701611497565b935050602084013567ffffffffffffffff81111561163d5761163c611206565b5b61164986828701611497565b925050604084013567ffffffffffffffff81111561166a57611669611206565b5b61167686828701611497565b9150509250925092565b7f4e487b7100000000000000000000000000000000000000000000000000000000600052602260045260246000fd5b600060028204905060018216806116c757607f821691505b6020821081036116da576116d9611680565b5b50919050565b7f4e487b7100000000000000000000000000000000000000000000000000000000600052601160045260246000fd5b600061171a82610ff7565b915061172583610ff7565b925082820390508181111561173d5761173c6116e0565b5b92915050565b7f4e487b7100000000000000000000000000000000000000000000000000000000600052603260045260246000fd5b600082825260208201905092915050565b7f4f6e6c7920746865206f776e65722063616e206368616e676520746f6b656e73600082015250565b60006117b9602083611772565b91506117c482611783565b602082019050919050565b600060208201905081810360008301526117e8816117ac565b9050919050565b60006117fa82610ff7565b915061180583610ff7565b925082820190508082111561181d5761181c6116e0565b5b92915050565b7f63616e27742066696e642074686973207461736b000000000000000000000000600082015250565b6000611859601483611772565b915061186482611823565b602082019050919050565b600060208201905081810360008301526118888161184c565b9050919050565b60008190508160005260206000209050919050565b60006020601f8301049050919050565b600082821b905092915050565b6000600883026118f17fffffffffffffffffffffffffffffffffffffffffffffffffffffffffffffffff826118b4565b6118fb86836118b4565b95508019841693508086168417925050509392505050565b6000819050919050565b600061193861193361192e84610ff7565b611913565b610ff7565b9050919050565b6000819050919050565b6119528361191d565b61196661195e8261193f565b8484546118c1565b825550505050565b600090565b61197b61196e565b611986818484611949565b505050565b5b818110156119aa5761199f600082611973565b60018101905061198c565b5050565b601f8211156119ef576119c08161188f565b6119c9846118a4565b810160208510156119d8578190505b6119ec6119e4856118a4565b83018261198b565b50505b505050565b600082821c905092915050565b6000611a12600019846008026119f4565b1980831691505092915050565b6000611a2b8383611a01565b9150826002028217905092915050565b611a4482611010565b67ffffffffffffffff811115611a5d57611a5c61139a565b5b611a6782546116af565b611a728282856119ae565b600060209050601f831160018114611aa55760008415611a93578287015190505b611a9d8582611a1f565b865550611b05565b601f198416611ab38661188f565b60005b82811015611adb57848901518255600182019150602085019450602081019050611ab6565b86831015611af85784890151611af4601f891682611a01565b8355505b6001600288020188555050505b505050505050565b6000611b1882611010565b611b228185611772565b9350611b3281856020860161102c565b611b3b81611056565b840191505092915050565b611b4f816110a0565b82525050565b600060a082019050611b6a6000830188611366565b8181036020830152611b7c8187611b0d565b90508181036040830152611b908186611b0d565b90508181036060830152611ba48185611b0d565b9050611bb36080830184611b46565b9695505050505050565b7f646f6e74206861766520656e6f7567687420746f6b656e000000000000000000600082015250565b6000611bf3601783611772565b9150611bfe82611bbd565b602082019050919050565b60006020820190508181036000830152611c2281611be6565b9050919050565b6000611c3482610ff7565b91507fffffffffffffffffffffffffffffffffffffffffffffffffffffffffffffffff8203611c6657611c656116e0565b5b60018201905091905056fea2646970667358221220f809e04431c2b10525c9625015fb687054cfadcdc823b184413cf13c789915fb64736f6c63430008130033",
  "linkReferences": {},
  "deployedLinkReferences": {}
}